:100000000C94F4020C941C030C941C030C941C031D
:100010000C941C030C941C030C941C030C941C03E4
:100020000C941C030C941C030C941C030C94C51E10
:100030000C941C030C941C030C941C030C941C03C4
:100040000C94681F0C941C030C941C030C941C034C
:100050000C941C030C941C030C941C030C941C03A4
:100060000C941C030C941C0308204CDAFEFE760052
:100070007CFAC6C682007CFAC6C6FE7C007CFAFE0C
:100080003272FEDC007CFAD6C644100FC67CEAFA57
:100090007E7C7C10EE7CC6FE007C04000A7C0EFA9E
:1000A000FED6FED60EC60E440400100F007C38FAB1
:1000B000E0FEE0E038E0006000007070A8A8A8A8AA
:1000C00090900000C200FE0080001018F1E0FDF8E2
:1000D000C508C548FDD800003DE041F88048F078EB
:1000E0007DE00000F1E0FDF8940895F8840801F83F
:1000F0000000FDE0F5F815281D28F10808067CFA37
:100100008686FE7C0806040A0EFEFE7C0806C4E213
:10011000F6FEDECC080644C2D6D6FE7C08061C1AC3
:1001200018FEFE180806DCDADED6F6640806FCFACD
:100130009E96F66408060402E6F61E0E08067CFA91
:10014000D6D6FE7C08061CDAD6D6FE7C401E0008F9
:10015000000800800000000800180180000000185E
:10016000001C014000000038003403C00000006C97
:10017000003C07400000007C003E07A0000000FF9C
:10018000FFFFFFFFF00000C000000000100001FFB3
:10019000F9FFEFFFB00003FFF9FFCFFF300007FFCB
:1001A000F1FFDFFF300007FFF1FF9FFE70000FFF40
:1001B000F3FFBFFE70001FFFE3FFBFFCF000100065
:1001C00000000000F000100000003FFFF0001FFFE3
:1001D0009FFE7FFFF0001FFFBFFC7FFFE0001DFFC1
:1001E0003FFD7FFFE000115F7FF97FFFC000000C43
:1001F0007FFB7FFFC000000CFFFB7FFF8000001C27
:10020000FFF37FFF80000001FFF77FFF8000000009
:100210000007000000000007FFFF000000000007CB
:10022000FFFF0000000000079FBF00000000000665
:1002300014FF000000000000002F000000005465C3
:100240007472696E6F206279204A6F666620285347
:100250005443290054657472696E6F206279204A94
:100260006F66662028535443290054657472696E82
:100270006F206279204A6F66662028535443290014
:1002800003053F213F0A100A1208120E1C0E0C1E15
:100290000C141A14161F161E131E1E1B1E1E1F1EC4
:1002A0003F213F3A2F3A173D173F213F181F0204C5
:1002B0000A041F0E04040E1F0A1F0A0E0E1F04114B
:1002C0000E2E252E2F2A2E262929021F02081F084E
:1002D000150E04040E150E15151B151B040604043B
:1002E0000C040000000017000300031F0A1F16374C
:1002F0001A1904130A153A000300000E11110E001A
:100300000A040A040E04003000040404001000185B
:1003100004031F111F121F101D151711151F0704AD
:100320001F17151D1F151D01011F1F151F17151F55
:10033000000A00003200040A110A0A0A110A040124
:1003400015020E11171E051E1F150A0E110A1F1188
:100350000E1F15111F05010E111D1F041F111F1166
:1003600008100F1F041B1F10101F061F1E040F0E66
:10037000110E1F09060E112E1F051A121509011F55
:10038000011F101F0F180F1F0C1F1B041B031C0342
:10039000191513001F11030418111F000201022078
:1003A00020200001020C121E1F120C0C12120C1243
:1003B0001F0C1A14041E05242A1E1F021C141D10D3
:1003C00020201D1F0814111F101E041E1E021C0CCD
:1003D000120C3E0A040C123E1E040214160A020FEE
:1003E000120E101E0E100E1E081E120C1226281EB3
:1003F000322A26041E21001F00211E040102013F93
:10040000213F0A4E6F2053442063617264206F7253
:100410000A6E6F204C4F414445522E4845580A0AF7
:10042000153A45786974001D20466C617368696EE1
:10043000670A20206C6F616465722E2E2E0A0A44B2
:100440004F4E2754205455524E204F464621004EC1
:100450004F20424154544552590A0A504C45415389
:10046000450A5455524E204F464600177361766533
:1004700000166261636B001574797065000A0A0AE0
:10048000153A6F6B617920163A6564697400596F8B
:100490007520656E74657265640A00540A03E18113
:1004A000867F3E186D830F0F0E0183866033186DB3
:1004B000C3198F1803C38E6033186DE330CF180350
:1004C000C39E603630CDE360CF3006C79E7E3E309F
:1004D000CDB360CF300CC6F6603330D9B660CF33C1
:1004E000CFCCF66061B0DB1E60CF30D86CE6C06167
:1004F000B0DB1E618F19986CC6C063B19B0E330FC1
:100500000FB078C6FF7E1F1B061E0F175344001640
:100510001378001613140015102000152010000089
:100520000005008930080238024978681400004547
:10053000006801000005006801380100000500386E
:100540000168010000F6E8DBCFC3B8AEA49B928A35
:10055000827B746E68625C57524E4945413E3A3721
:1005600034312E2C29272523211F1D1C1A1917165B
:100570001514131211100F0E0D0C0B0A09080706A3
:10058000840588050101F7030101FF030000000055
:10059000240027002A0000000000250028002B006E
:1005A00000000000230026002900040404040404C1
:1005B0000404020202020202030303030303010212
:1005C00004081020408001020408102001020408E1
:1005D00010200000000700020100000304060000D4
:1005E0000000000000004F0E11241FBECFEFD8E026
:1005F000DEBFCDBF11E0A0E0B1E0E0EDF9E402C064
:1006000005900D92AE37B107D9F716E0AEE7B1E02D
:1006100001C01D92A83DB107E1F715E0C8EED5E095
:1006200004C02297FE010E94AB24C63ED107C9F741
:100630000E94E0210C94E6240C940000A0E0B0E0BD
:10064000E4E2F3E00C94B724EC01A880B980CA80FE
:10065000DB80A114B104C104D10441F484E2A82ECA
:1006600089EDB82E8BE5C82E87E0D82EC601B501DE
:100670002DE133EF41E050E00E948E2427EA31E47F
:1006800040E050E00E9426247B018C01C601B501A8
:100690002DE133EF41E050E00E948E24CA01B90100
:1006A0002CEE34EF4FEF5FEF0E9426246E0D7F1D7E
:1006B000801F911F97FF04C0615070408040904898
:1006C000688379838A839B839B01AC015F77B9013F
:1006D000CA01CDB7DEB7EAE00C94D3240E941E0312
:1006E000089587E091E00E941E030895609307013A
:1006F000709308018093090190930A010895FA010B
:10070000DA0120E030E08FEF9FEF11969C938E93FB
:1007100019969C938E93189751969C938E9350970D
:1007200059969C938E9358972F5F3F4F1296243083
:10073000310559F783E090E095A384A363307105F8
:10074000D1F16430710554F46130710501F162300A
:10075000710564F56115710569F050C0653071056A
:1007600009F43FC0653071058CF16630710509F000
:1007700045C03CC081E090E0938382839387828769
:10078000938B828B938F828F35A324A337C086E00F
:1007900090E091838083938382839187808793877E
:1007A000828782E090E095A384A328C087E090E050
:1007B000938382830FC085E090E093838283918747
:1007C000808793878287918B808B18C082E090E02E
:1007D000918380839187808793878287938B828B95
:1007E0000DC09183808393838283F6CF33832283EA
:1007F00033872287318B208B338B228B77A366A3A1
:100800000895CF92DF92EF92FF920F931F93CF93B1
:10081000DF93EC01CB5DDD4F19821882CB56D040BF
:10082000A881B981ED91FC9111970084F185E02DAB
:10083000CD010995C059DF4F688379838A839B83F3
:100840002696688379838A839B83289718821A92D5
:10085000229681E08883C952D24019821882C25DF3
:10086000DD4F88EE93E099838883C257D040199278
:100870001992199219921992199219921992198230
:100880001882C45CD140FE01EA53FE4F80E090E044
:1008900011921192019687309105D1F7EE24FF2431
:1008A000CC24CA94DC2C0EC0D182C08201967496EE
:1008B00086319105C9F70894E11CF11C2AE0E21683
:1008C000F10449F0F7013196EE0FFF1FEC0FFD1F09
:1008D00080E090E0E9CF8E0106541E4FF801A08120
:1008E000B181ED91FC9111970284F385E02DCD014A
:1008F000099567E070E00E945924BC01AE014C529A
:100900005E4FCE010E947F03FE01EC50FE4FC850A7
:10091000DE4F888199819701281B390BC90162E05C
:1009200070E00E945924718360831A921A92C65F04
:10093000D140F801A081B181ED91FC911197028421
:10094000F385E02DCD01099567E070E00E94592400
:10095000BC01CE01C450DE4FAE010E947F03A896B9
:1009600081E088836096C992D992C992D992D9823E
:10097000C882DF91CF911F910F91FF90EF90DF9090
:10098000CF900895CF93DF93EC01DB01C654DE4F87
:1009900079836883CA5BD140ED91FC910190F0812D
:1009A000E02DCB01BE010995CB5DDD4F9983888396
:1009B000C552D240892B19F4CE010E940104DF9167
:1009C000CF910895FC01E654FE4FA081B181ED91D5
:1009D000FC9111970280F381E02DCD0109950895D6
:1009E0002F923F924F925F926F927F928F929F923F
:1009F000AF92BF92CF92DF92EF92FF920F931F932D
:100A0000DF93CF93CDB7DEB7A0970FB6F894DEBFD4
:100A10000FBECDBFAC01562E46505E4FDA018D9110
:100A20009C914A5F5140019709F4EAC06E01089415
:100A3000C11CD11CC6010FEF1FEFDE01199621C0AA
:100A4000118300833896E217F307D1F702968A17CD
:100A50009B07B9F448505E4FFA01A080B180485F0F
:100A6000514075010894E108F10800E010E04701E9
:100A7000880C991C880C991C3E010894611C711CFF
:100A80001FC0FC019C01205E3F4FDACF2D913C91AD
:100A90001197552011F0F10101C0FC013183208331
:100AA0006F5F7F4F129628EF3FEF220E331E08969E
:100AB0006A157B055CF30F5F1F4F0894E108F1088E
:100AC0000A151B05B4F000E010E02E010894411C4B
:100AD000511CF4EF8F2EF1E09F2E840E951EE6EF51
:100AE000EE2EE1E0FE2EE40EF51E76E1672E712C6F
:100AF0004DC0D80163E0AA0FBB1F6A95E1F7AC5265
:100B0000BE4FA40FB51F1801280C391C220C331C32
:100B1000260C371CC701880F991F860D971D60E0B2
:100B200070E0C6CF8D919C9111978F5F9F4F31F1EF
:100B3000F40120813181200F311F2A30310508F066
:100B40005FC0F70180819181860F971F86319105E3
:100B50000CF056C0269DF001279DF00D369DF00D3E
:100B60001124E80FF91F3196EE0FFF1FE40FF51F58
:100B7000808191818F5F9F4F09F042C06F5F7F4FEF
:100B800012966A157B0574F20F5F1F4F0A151B053D
:100B90003CF0FA01EC52FE4F9E012F5D3F4F0BC01F
:100BA000D80163E0AA0FBB1F6A95E1F7A40DB51D3C
:100BB00060E070E0E6CFD6018D919C911197918312
:100BC000808312968D919C911397938382831496C0
:100BD0008D919C9115979583848316968D919C9108
:100BE00017979783868388E090E0C80ED91E3896C1
:100BF000C216D30601F74C5D5D4F81E0DA018C939C
:100C0000A0960FB6F894DEBF0FBECDBFCF91DF9197
:100C10001F910F91FF90EF90DF90CF90BF90AF901A
:100C20009F908F907F906F905F904F903F902F900C
:100C30000895AF92BF92CF92DF92EF92FF920F93FF
:100C40001F93CF93DF93EC018A01CA50DE4F899145
:100C50009991080F191FE880F9802497888199815C
:100C6000C45FD140680F791F40E050E026E1C22EFA
:100C7000D12C22C0AD90BC9011978FEFA8168FEFAA
:100C8000B80679F06A307105B8F5C901800F911F77
:100C9000469794F5A080B1808FEFA8168FEFB80625
:100CA00059F52F5F3F4F129632962E153F0514F3DC
:100CB0004F5F5F4F6F5F7F4F4E155F0514F080E011
:100CC0001CC0DA0193E0AA0FBB1F9A95E1F7AC5262
:100CD000BE4FAC0FBD1F6C9DF0016D9DF00D7C9D56
:100CE000F00D1124E00FF11F3196EE0FFF1FEC0FF6
:100CF000FD1F20E030E0D9CF81E0DF91CF911F913F
:100D00000F91FF90EF90DF90CF90BF90AF9008953C
:100D1000CF93DF93EC01FC01E054FE4F8081918181
:100D2000860F971F9183808362307105E9F06330ED
:100D300071052CF46130710509F055C008C06330AD
:100D40007105B9F16430710509F04DC03FC0FE0175
:100D5000E454FE4FCC53DE4F88819981C45CD1406E
:100D6000019620E931E00CC0FE01E454FE4FCC5363
:100D7000DE4F88819981C45CD140019628EE33E032
:100D8000AC01429FC001439F900D529F900D1124D2
:100D9000AA2797FDA095BA2F2081318142815381E6
:100DA000820F931FA41FB51F80839183A283B383F7
:100DB00022C0FE01E454FE4FCC53DE4F888199815E
:100DC000C45CD140019628EB3BE0DACFFE01E4544D
:100DD000FE4FCC53DE4F88819981C45CD14001968F
:100DE00020EE3EE2CDCFCB5DDD4F8CE99FEF9983C6
:100DF0008883C552D240FE01EC53FE4F40815181A1
:100E00004F5F5F4FC054DE4FCA01880F991F9A0190
:100E100063E0220F331F6A95E1F7820F931F288149
:100E20003981C05CD14028173907ACF05183408329
:100E3000FE01E25DFD4F20813181C90143E0880F51
:100E4000991F4A95E1F7820F931F6AE070E00E94B4
:100E5000592471836083C654DE4FE881F981A081F3
:100E6000B1811C962D913C911D97CF01F9010995F7
:100E7000DF91CF9108958F929F92AF92BF92CF92C0
:100E8000DF92EF92FF920F931F93CF93DF93EC01CA
:100E90007B018A010E941906882309F42BC10130C5
:100EA000110509F039C1FE01EA50FE4F80819181A0
:100EB000029784F040E050E08E0108501E4F84EF0E
:100EC000C82E81E0D82ECC0EDD1EB6E1AB2EB12CA3
:100ED0007F0136C0C85DDD4F81E08883C852D240B3
:100EE0001BC1D4016D917C91BFEF6F3F7B07D1F0A7
:100EF000F60180819181840F951F8A9DF0018B9D61
:100F0000F00D9A9DF00D1124D7018D919C91E80F61
:100F1000F91FE20FF31F3196EE0FFF1FEC0FFD1FBD
:100F2000718360832F5F3F4FE2E0F0E08E0E9F1EE3
:100F3000D8018D919C91281739079CF24F5F5F4F24
:100F4000F80180819181481759073CF0A1E0B0E099
:100F500060E070E006E110E041C04A0123E0880C47
:100F6000991C2A95E1F784ED91E0880E991E8C0E6C
:100F70009D1E20E030E0DCCF808191818F5F9F4F0C
:100F800049F12F5F3F4FBC962A303105A9F740E069
:100F900050E00FC021503040808191819383828343
:100FA000329721153105B1F74F5F5F4F4A30510538
:100FB00079F0409FF001419FF00D509FF00D1124FA
:100FC000EA0FFB1FEE0FFF1FEC0FFD1F9D01E2CF8D
:100FD0006F5F7F4F1196A631B10549F0FD01319643
:100FE000EE0FFF1FEC0FFD1F20E030E0C5CF6115B5
:100FF000710519F0CE010E948806FE01EE53FE4FE6
:1010000080819181019691838083C650DE4FE88173
:10101000F981CA5FD140ED51FF4FEE0FFF1FEC0F7A
:10102000FD1F80819181019691838083DE01A45010
:10103000BE4FFE01EC52FE4F20E030E08D919C91BE
:1010400011979183808312968D919C91139793832E
:10105000828314968D919C9115979583848316961F
:101060008D919C911797978386832F5F3F4F18969A
:1010700038962430310511F7FE01E850FE4FC05E6E
:10108000DD4F28813981C052D24031832083FE0157
:10109000E650FE4FCE5DDD4F88819981918380833C
:1010A000AC97198218828AE090E0821B930B62E071
:1010B00070E00E9459247A936A93E09681E08883D5
:1010C000CA56D040A881B981CA5BD140ED91FC914C
:1010D00011970284F385E02DCD01099567E070E05A
:1010E0000E945924BC01AE0144505E4FCE010E94C3
:1010F0007F0312C0FE01EC50FE4F808191818E0D66
:101100009F1D91838083FE01EA50FE4F8081918173
:10111000800F911F91838083CC5DDD4F81E08883B8
:10112000DF91CF911F910F91FF90EF90DF90CF90C3
:10113000BF90AF909F908F900895EF92FF920F9382
:101140001F93CF93DF93EC0100E010E07801089447
:10115000E11CF11CCE0160E070E0A7010E941906BD
:10116000882311F48701F2CFCE0160E070E0A8017E
:101170000E943B07CE0160E070E041E050E00E9439
:101180003B07FE01E454FE4FCC53DE4F888199812A
:10119000019622E330E0AC01429FC001439F900DD5
:1011A000529F900D1124AA2797FDA095BA2F208158
:1011B000318142815381820F931FA41FB51F808309
:1011C0009183A283B3832A97A881B981ED91FC9181
:1011D00011970684F785E02DCD010995DF91CF9118
:1011E0001F910F91FF90EF900895CF92DF92EF92B1
:1011F000FF920F931F93CF93DF93EC018C01065462
:101200001E4FF801A081B181ED91FC9111970480EE
:10121000F581E02DCD010995FE01E85DFD4F80814E
:101220009881882339F097FF1EC11082CE010E9459
:10123000010419C197FF04C0CE010E94010420C11E
:10124000F801A081B181ED91FC9111970084F185A5
:10125000E02DCD0109956B017C01C65DDD4F8881D4
:101260009981CA52D2409601281B390BFE01E85CD5
:10127000FD4F808191811816190684F4821B930B0F
:1012800091838083181619064CF088E290E09183D0
:10129000808388819981816099838883FE01EC5CD9
:1012A000FD4F80819181181619067CF4821B930BE7
:1012B000918380831816190604F188E290E09183E7
:1012C000808388819981826016C0FE01EA5CFD4FAF
:1012D000808191811816190684F4821B930B9183E7
:1012E0008083181619064CF088E290E09183808381
:1012F00088819981846099838883888186FF09C069
:10130000FE01E95DFD4F808191E08927808319828C
:101310001882C95DDD4F8881C752D2408823E1F031
:10132000FE01E05DFD4FC65DDD4F80819181A281B0
:10133000B381288139814A815B81CA52D240821BA4
:10134000930BA40BB50B8C0D9D1DAE1DBF1D808393
:101350009183A283B3837FC088819981009709F428
:1013600051C090FF0CC0FE01E75DFD4F808191E010
:1013700089278083CC5DDD4F9883C452D240888119
:1013800085FF03C0CE010E949D08888183FF04C0B1
:10139000CE0161E00E94F004888182FF04C0CE018A
:1013A00061E070E005C081FF07C0CE016FEF7FEF05
:1013B00040E050E00E943B07888180FF21C0FE0191
:1013C000E454FE4FCC53DE4F88819981C45CD140F8
:1013D0000196AA2797FDA095BA2F208131814281DD
:1013E0005381820F931FA41FB51F80839183A28313
:1013F000B383CE0160E070E041E050E00E943B0723
:10140000198218828E01005D1D4FF8018081918143
:10141000A281B381A7019601281B390B4A0B5B0BF4
:10142000C25DDD4F88819981CE52D240AA2797FDB7
:10143000A095BA2F281739074A075B0764F0CE0139
:1014400060E070E041E050E00E943B07F801C0829C
:10145000D182E282F382C65DDD4FC882D982EA8200
:10146000FB82CA52D240C654DE4FE881F981A08186
:10147000B18116962D913C911797CF01F9010995ED
:10148000DF91CF911F910F91FF90EF90DF90CF9060
:101490000895FC016032710509F451C06132710593
:1014A0009CF462307105B9F1633071052CF4613040
:1014B000710509F04AC023C064307105A1F168309C
:1014C000710509F042C023C081E060307807B9F1AE
:1014D00081E0613078073CF46034710581F1603857
:1014E000710599F52CC082E06030780741F16050B9
:1014F000744059F5EB5DFD4F81E090E01DC08081A7
:101500009181816091838083E85CFD4F13C080816D
:101510009181886011C080819181826091838083F4
:10152000EC5CFD4F07C08081918184609183808352
:10153000EA5CFD4F88EC90E0918380830895808180
:101540009181862B972B918380830895FC016230D3
:10155000710549F06430710569F06130710581F4FD
:10156000E85CFD4F02C0EC5CFD4F8FEF9FEF918375
:1015700080830895EA5CFD4F8FEF9FEF9183808316
:101580000895DC011496ED91FC91159781E0808F10
:10159000089560E070E080E090E02EEF3FE740E0EB
:1015A00050E00E94E322CB0108953F924F925F9258
:1015B0006F927F928F929F92AF92BF92CF92DF9263
:1015C000EF92FF920F931F93CF93DF932C01362E50
:1015D000EA01380149015701CC24DD24EE24279784
:1015E000C50133E0880F991F3A95E1F78A199B09E5
:1015F000C80FD91FF20104811581FE2CFC0EB30126
:10160000C4012AE030E040E050E00E948E24DC017A
:10161000CB01880F991F855F9E4FFC01208131818E
:10162000C80180549F4F632D4F2D0E94D612B301E5
:10163000C4012AE030E040E050E00E948E243901ED
:101640004A010894C11CD11CF9EFEF0ECA14DB0447
:101650008CF2DF91CF911F910F91FF90EF90DF906F
:10166000CF90BF90AF909F908F907F906F905F9042
:101670004F903F9008958F929F92AF92BF92CF92DA
:10168000DF92EF92FF920F931F934C017B01142F77
:10169000FC0184819581E5E3AE2EE1E0BE2E6B0175
:1016A00074E0CC0CDD1C7A95E1F7CA0CDB1C859646
:1016B00060E0F601448520E0012F0E941A1AF4012F
:1016C00084819581859661E0F601408120E00E9449
:1016D0001A1AF40184819581F60120852195859659
:1016E00062E042850E941A1AF4018481958154E0D7
:1016F000EE0CFF1C5A95E1F7F60124812A538596DA
:1017000063E046810E941A1AF40184819581AE0C2F
:10171000BF1C8596F5016281F6014685212F0E9446
:101720007F1A1F910F91FF90EF90DF90CF90BF90A5
:10173000AF909F908F90089563E070E040E050E09C
:101740000E943B0B089560E070E041E050E00E9491
:101750003B0B08958F929F92AF92BF92CF92DF92F0
:10176000EF92FF920F931F93CF93DF93EC01EA81E7
:10177000FB81EC5DFD4F8081882309F46BC1EC8116
:10178000FD81108E8C819D8180549F4F60E041E0EF
:101790002EE10E94AF108C819D8180549F4F60E0AC
:1017A00040E02CE30E94A5108C819D8180549F4FC6
:1017B00060E04FE12CE30E94A5108C819D81805454
:1017C0009F4F6DE440E028E630E00E94D6128C8105
:1017D0009D8180549F4F69E241E22AE830E00E94F7
:1017E000D6128C819D8180549F4F6AE041E22AEAA3
:1017F00030E00E94D612EA81FB81E75DFD4F8081D7
:10180000882329F0CC24DD24F2E2BF2E2FC0CC2483
:10181000DD2411E0E6E1AE2EB12C63C0EA81FB814C
:10182000C4018E0D9F1D82509F4F880F991FE80F96
:10183000F91F808191818F5F9F4F51F08C819D8135
:1018400080549F4F612F4B2D23E003E00E94EF1047
:101850000894E11CF11C1350153101F70894C11CC8
:10186000D11C83E0B80E2EE2B21689F2EE24FF24DA
:1018700011E24601880C991C880C991CCFCFEA8193
:10188000FB81C4018E0D9F1D0196880F991FE80FE3
:10189000F91F808191818F5F9F4F99F08C819D818D
:1018A000970120953095B901660F771F620F731F5E
:1018B0006D5B7F4F80549F4F412F23E003E00E94D8
:1018C000EF100894E11CF11C86E1E816F104B9F66A
:1018D0000894C11CD11C1D5F1F3119F4CC24DD24D8
:1018E0004CC0EE24FF24CA9C4001CB9C900CDA9C97
:1018F000900C1124C4CFAA81BB81F401EE0DFF1D11
:10190000E651FF4FEE0FFF1FEA0FFB1F8081918111
:101910008F5F9F4F21F18C819D81AA50BE4F2D91E9
:101920003C9111972E0D3F1D20953095B901660F02
:10193000771F620F731F6D5B7F4FFD013291229104
:101940002C0D3D1DA901440F551F420F531F4F5F22
:101950005F4F80549F4F23E003E00E94EF100894F4
:10196000E11CF11C84E0E816F10429F60894C11C7E
:10197000D11C24E0C216D10441F0EE24FF2446011C
:10198000880C991C880C991CB6CFEA81FB81E95D13
:10199000FD4F8081E752F240882331F5EC53FE4F32
:1019A00000811181222717FD2095322FCE0161E0A1
:1019B00070E041E250E0A2E0EA2EF12CCC24DD24DC
:1019C0000E94D50AEA81FB81E454FE4F0081118117
:1019D00022813381CE0165E470E040E050E0F7E021
:1019E000EF2EF12C0E94D50AEA81FB81E85DFD4FC4
:1019F0008081882379F18D85882349F4CE0162E0C6
:101A000070E040E050E00E943B0B81E08D878C81CC
:101A10009D8180549F4F60E00E94E70F8C819D81E3
:101A200080549F4F6BE141E024E10EE10E94B91028
:101A30008C819D8180549F4F61E040E00E94EB0FBC
:101A40008C819D8180549F4F6EE144E02AEC30E010
:101A50000E94D612DF91CF911F910F91FF90EF90CE
:101A6000DF90CF90BF90AF909F908F900895EF92AE
:101A7000FF921F93CF93DF93EC017B013CC08C81DD
:101A80009D810A960E94AB0F182F8C819D810A962A
:101A900060917E010E94B50F982F112379F08091FB
:101AA0007E01FE01E80FF11DDF011696868181306F
:101AB00029F081E08C9381E090E00FC09923B1F090
:101AC00080917E01FE01E80FF11DDF0116968681EF
:101AD000882361F01C9282E090E0F701918380837B
:101AE00080917E01F701828381E011C080917E01A7
:101AF0008F5F80937E0160917E01673008F4BFCFD5
:101B000010927E01F70111821082128280E0DF9133
:101B1000CF911F91FF90EF900895EF92FF920F9356
:101B20001F93DF93CF9300D00F92CDB7DEB78C0118
:101B30007E010894E11CF11C7EC089819A8181306C
:101B4000910521F0029709F076C056C02B81233011
:101B500009F43FC0243050F42130A9F1D801129685
:101B60008D919C9113972230E0F50EC0253031F015
:101B70002530D0F1263009F05EC009C0F80182811D
:101B8000938160E074E035C061E070E032C0D8015C
:101B900012968D919C91139768E070E00E94490A1B
:101BA000D8011296ED91FC911397E85DFD4F80816D
:101BB000882309F040C0C80161E070E040E050E0D7
:101BC0000E943B0B38C0F8018281938162E070E093
:101BD00010C0D80112968D919C91139764E070E02B
:101BE00008C060E270E005C0F8018281938160E482
:101BF00070E00E94490A1FC08B81813069F08130FA
:101C000018F08330C1F40EC0D80112968D919C91CA
:101C1000139761E070E00DC0F8018281938162E06A
:101C200070E007C0D80112968D919C91139764E0E3
:101C300070E00E94A60AC801B7010E94370D8823F0
:101C400009F07BCF0F900F900F90CF91DF911F91F4
:101C50000F91FF90EF9008950E94B01F08950F9389
:101C60001F93CF93DF93EC018B018C819D810E94A8
:101C70005017FE0180E090E0168201963196873081
:101C80009105D1F71B830A831D86EC81FD81108E9F
:101C900080E090E0DF91CF911F910F910895109215
:101CA00042021092410289E791E0909340028093B2
:101CB0003F0285E291E09093B2048093B1040895CD
:101CC0008FE791E00E948517882361F187E792E012
:101CD0000E94F50880919C0490919D0481309105AB
:101CE00099F487E792E00E94E20487E792E061EBD3
:101CF00074E00E94C2048FE791E064E572E04CE476
:101D000051E00E943E180895892B61F087E792E028
:101D10000E94E2048FE791E06EE372E04CE451E050
:101D20000E943E1808950F931F930FE711E0C8011A
:101D30000E94A119C8016AE672E04CE451E00E94D9
:101D40003E181093B6040093B50487E792E061EB68
:101D500074E00E94C2041F910F910895882319F422
:101D60008CB5806202C08CB58F7D8CBD08959CB50A
:101D7000937F982B9CBD08952CB5382F33702C7F02
:101D8000322B3CBD2DB590E095958795959587951F
:101D900081702E7F822B8DBD08958AE061E00E94C4
:101DA00039218AE061E00E94FA208CB580618CBD07
:101DB0008CB580648CBD8DE061E00E94FA208BE0E0
:101DC00061E00E94FA200895FC0181E0808308957B
:101DD00085E070E00E949A2008956F927F928F9222
:101DE0009F92AF92BF92CF92DF92EF92FF920F93AA
:101DF0001F93CF93DF93EC0189819A818C0124E0BA
:101E0000000F111F2A95E1F7081B190B85E10E94AD
:101E10007820BC01600F711F84E0769567958A95E4
:101E2000E1F77A8369838881882381F12E813F815C
:101E30006217730710F4B90106C088859985861763
:101E4000970708F4BC0100D000D080E090E040E0AB
:101E500050E0E884F98400E010E0AD80BB24CC249D
:101E6000DD246C80772488249924EDB7FEB7618245
:101E70007282838294820E9478226B830F900F90EB
:101E80000F900F9085E070E00E949A20DF91CF9133
:101E90001F910F91FF90EF90DF90CF90BF90AF9088
:101EA0009F908F907F906F900895FC018CE39FE04E
:101EB0009383828384E0818381E084870895CF9334
:101EC000DF93EC018C8590E08F719070892B69F520
:101ED00084E10E947820AA2797FDA095BA2FBC0123
:101EE000CD010E94372326EE3FE34EEC50E40E94E2
:101EF000C3230E9409239B01AC017B836A83611584
:101F0000710589F084E08983B901FE0120E08481B4
:101F100095816817790710F429830AC02F5F3296DC
:101F20002430A9F702C08FEF89838C858F5F8C875F
:101F3000DF91CF910895FC0188E0808389E081835F
:101F400087E0828386E0838384E0848382E08583E4
:101F500081E18683089520E0FC01E60FF11D878171
:101F6000813009F421E0822F089520E0FC01E60F82
:101F7000F11D87818F3F09F421E0822F08950F938F
:101F80001F93CF93DF93EC0110E00FEF888162E0A5
:101F90000E94FA2088810E948D212F81892B19F4BB
:101FA0002F5F2F8307C0222349F02F3F11F41F8298
:101FB00001C00F83888160E00E94FA201F5F219694
:101FC000173021F7DF91CF911F910F910895FC01F8
:101FD000678F60A30895FC01678F40A30895FC01FB
:101FE0006435A8F547FD33C040338CF5878D942FB9
:101FF000959595959595772767FD709547708823FA
:1020000099F0E4E59E02F0011124E60FF71FE15478
:10201000FB4F81E090E002C0880F991F4A95E2F7DC
:102020002081282B20830895E4E59E02F0011124ED
:10203000E60FF71FE154FB4F81E090E002C0880FEC
:10204000991F4A95E2F780952081282320830895DF
:10205000AF92BF92CF92DF92EF92FF920F931F93B6
:10206000CF93DF93EC01162FF42EE22EAA24402FFB
:10207000552747FD50958F2D992787FD9095481B33
:10208000590B57FF03C0509541955F4F2E2D3327B5
:1020900027FD3095812F992787FD9095281B390BB7
:1020A00037FF03C0309521953F4F2417350744F47F
:1020B000AA24A3948F2DF12E182F802F0E2DE82EF9
:1020C000E11634F48E2DE12E182F802F0F2DF82ECF
:1020D000DE2CD11A202F332727FD30958F2D9927FD
:1020E00087FD9095281B390B37FF03C0309521954C
:1020F0003F4FB22EF0161CF0CC24CA9402C0CC2460
:10210000C3948D2DD7FC8F5F082F059511C0AA2091
:1021100021F0CE016F2D412F03C0CE01612F4F2D35
:102120000E94EF0F0B1907FF02C0FC0C0D0D1F5F83
:10213000E1166CF7DF91CF911F910F91FF90EF9017
:10214000DF90CF90BF90AF9008950F93042F322F60
:10215000262F2150230F0E9428100F9108950F93CE
:10216000362F042F0150020F232F0E9428100F91A9
:1021700008959F92AF92BF92CF92DF92EF92FF921B
:102180000F931F93CF93DF936C01B62E942EA02E46
:10219000C0E0D0E0E62EFF24E7FCF094022F1127E8
:1021A00007FD10950E0D1F1D06C0C601492D2A2DD5
:1021B0000E94AF1021966B2D6C0FCE018E0D9F1DCE
:1021C0008017910794F3DF91CF911F910F91FF90AA
:1021D000EF90DF90CF90BF90AF909F900895CF92F7
:1021E000DF92EF92FF920F931F937C01162FD42E54
:1021F000C22E0E94A5104D2D4150400FC701612FE6
:102200002C2D0E94A510C701612F4D2D202F0E945B
:10221000AF1011501C0DC701612F4D2D202F0E94B2
:10222000AF101F910F91FF90EF90DF90CF90089526
:102230002F923F925F926F927F928F929F92AF9276
:10224000BF92CF92DF92EF92FF920F931F93DF9393
:10225000CF9300D000D000D0CDB7DEB79E838D8362
:10226000C62ED42EEE24E394E21A8EEF289F502C33
:102270001124842E8A94962E9A94A42EA394B62E7A
:10228000B394F22E662423E0722E10E0C80184700D
:1022900090709A838983F801E270F070FC83EB837D
:1022A00098E0292E312C202231220170107054C068
:1022B000E7FC04C0FA94F2E05F0EE50C63948981B8
:1022C0009A81892B71F04F2D4D0D8D819E816B2D43
:1022D0000E94EF0F6F2D6C0D8D819E814A2D0E9403
:1022E000EF0FEB81FC81EF2B71F04D2D4F198D819C
:1022F0009E816B2D0E94EF0F6F2D6C0D8D819E8145
:10230000482D0E94EF0F2114310471F06C2D6F19CC
:102310008D819E814A2D0E94EF0F4F2D4D0D8D8195
:102320009E81692D0E94EF0F0115110571F06C2D32
:102330006F198D819E81482D0E94EF0F4D2D4F19F1
:102340008D819E81692D0E94EF0FE70CF2E07F0ED8
:102350008A949A94A394B3946F140CF4A9CF2696FC
:102360000FB6F894DEBF0FBECDBFCF91DF911F91A6
:102370000F91FF90EF90DF90CF90BF90AF909F9024
:102380008F907F906F905F903F902F9008954F9225
:102390005F926F927F928F929F92AF92BF92CF92F5
:1023A000DF92EF92FF920F931F93CF93DF93EC0195
:1023B000A62E742E9E2DFF24F394F21A8EEF289FE2
:1023C000802C1124B42EBA9453E0C52ECE0CE22EEC
:1023D000DD2443E0942E10E031E0432E512C4022C6
:1023E0005122692E63940270107034C0F7FC04C04F
:1023F000EA9482E0880EF80CD3944114510489F0D9
:102400006D2D6A0D472D4E192E2D220F260DCE0152
:102410000E94AF106E2D6A0DCE014B2D2C2D0E9407
:10242000AF100115110589F06A2D6D19472D4E1950
:102430002E2D220F260DCE010E94AF106A2D6E198F
:10244000CE014B2D2C2D0E94AF10F90C82E0980E7E
:10245000BA94C80EDE1454F2DF91CF911F910F9100
:10246000FF90EF90DF90CF90BF90AF909F908F90B4
:102470007F906F905F904F9008957F928F929F9280
:10248000AF92BF92CF92DF92EF92FF920F931F9382
:102490006C01962EA42EF22E7E2C760E1EEFE19E5F
:1024A000102D1124812E820E672D282D0E94A5103B
:1024B000B02EBA0CBA94C601672D4B2D282D0E9460
:1024C000A510AE0C100FC601692D4A2D212F0E94B8
:1024D000AF10F90CFA94C6016F2D4A2D212F0E94DE
:1024E000AF10C601672D4A2D2E2D01E00E94181154
:1024F000FE18C6016F2D4A2D2E2D02E00E941811E4
:10250000BE18C6016F2D4B2D2E2D04E00E94181110
:10251000C601672D4B2D2E2D08E00E9418111F912A
:102520000F91FF90EF90DF90CF90BF90AF909F9072
:102530008F907F9008958F929F92AF92BF92CF928B
:10254000DF92EF92FF920F931F936C01162FA42E30
:10255000922EF02EBE2C8E2C860E2EEFE29EE02CBC
:1025600011242E2D290D682D0E94B910AB0CFA9460
:10257000FE0C1150190D1B19C601612F4A2D2B2D70
:1025800001E0EF2C0E94C711C601682D4A2D2B2DAA
:1025900002E00E94C7111F910F91FF90EF90DF9012
:1025A000CF90BF90AF909F908F9008953F924F92A1
:1025B0005F926F927F928F929F92AF92BF92CF92D3
:1025C000DF92EF92FF920F931F93CF93DF934C0113
:1025D000362E442EF901A490319654906F01089440
:1025E000C11CD11C8A2D992787FD9095079668E01C
:1025F00070E00E945924E62EFF24E7FCF09400E0EE
:10260000C0E0D0E060E8662E712C26C0E12FE59591
:10261000E595E595FF27E7FDF095EC0FFD1FEC0D27
:10262000FD1DE4912E2F30E0812F8770A30102C0A1
:10263000559547958A95E2F724233523232B31F0CE
:10264000612F630DC4014B2D0E94EF0F1F5F1A1500
:10265000ECF20F5FCE0DDF1D051524F410E0B02E57
:10266000B40CF5CFDF91CF911F910F91FF90EF90B8
:10267000DF90CF90BF90AF909F908F907F906F90A2
:102680005F904F903F9008953F924F925F926F926C
:102690007F928F929F92AF92BF92CF92DF92EF92F2
:1026A000FF920F931F93CF93DF93EC01862EA42EFE
:1026B000422F102F3F8C23E526170CF4ABC03FE2CE
:1026C0003A150CF4A7C0C02EDD248C8190E0019750
:1026D0009C01C29EC001C39E900DD29E900D1124FC
:1026E000262F332727FD3095820F931F18161906C2
:1026F0000CF090C08D8190E09C01C29EC001C39EF1
:10270000900DD29E900D11242A2D332727FD309550
:10271000820F931F181619060CF07CC09924442EC2
:1027200055246DC09C01215030404217530711F4CD
:1027300060E00EC0429EC001439E900D529E900DDF
:102740001124840F951FED8DFE8DE80FF91F649104
:102750004C9DC0014D9D900D5C9D900D1124682CE9
:10276000680EBB24792C780C3FC0E62EFF2460FF56
:1027700019C0113039F44B2D4A0DCE01672D0E943E
:10278000EF0F2EC02C9DC0012D9D900D3C9D900DF6
:1027900011244A2D480FCE01662D212F012F0E94B2
:1027A000B9101EC098A18F8D9817D1F09F8F11304E
:1027B00039F44B2D4A0DCE01672D0E94EF0F0FC04B
:1027C0002C9DC0012D9D900D3C9D900D11244A2DF6
:1027D000480FCE01662D212F012F0E94B9103F8E88
:1027E000F594E7946E2DB3942B2D332727FD309568
:1027F0008D8190E0281739070CF4B7CF9394492DB9
:10280000552747FD50958C8190E0481759070CF4E7
:1028100089CF3F8EDF91CF911F910F91FF90EF9065
:10282000DF90CF90BF90AF909F908F907F906F90F0
:102830005F904F903F9008950F93CF93DF93EC01FB
:10284000262F6A3049F48D819885899F802D112427
:102850009A85980F9A8726C06D3029F169854A8537
:1028600008850E9444139C816885969F402D112401
:102870008985480F49878F818823A9F0552747FD0F
:102880005095699F9001112484E590E0821B930B81
:102890008417950744F49D81699F902D11248A85A2
:1028A000890F8A87198681E090E0DF91CF910F919F
:1028B00008951F93CF93DF93EC01162FF8948E8524
:1028C00060E00E9439218F8518161CF460E00E9498
:1028D00039211EBD0DB407FEFDCF8EB58F851816AC
:1028E0001CF461E00E9439217894DF91CF911F910F
:1028F0000895FF920F931F93CF93DF93EC01FF2472
:1029000000E010E06F2D6064CE010E945914CE01EA
:1029100060E80E9459148E8561E00E9439218F85FC
:1029200018161CF460E00E943921F801E154FB4FB5
:1029300090E080818EBD0DB407FEFDCF8EB59F5F08
:1029400031969435B1F78F8518161CF461E00E941A
:102950003921F3940C5A1F4F86E0F81699F6CE01F0
:1029600060E40E945914DF91CF911F910F91FF9065
:102970000895CF93DF93DC0188EF91E0EFEBF4E073
:10298000EF019C01199221503040E1F719961C92F9
:1029900019971A961C92DF91CF910895EF920F9399
:1029A000CF93DF93EC014D876C872E87E88A0F87E2
:1029B00081E088878F8F18A28F83E0E8F2E084910E
:1029C0008F5F8C83319684918F5F8D833196FE8FDC
:1029D000ED8F0E94CD0E81E00E94AE0E85E00E9438
:1029E000BC0E8CE00E94B70E8D8561E00E94FA203B
:1029F0008C8561E00E94FA208E8561E00E94FA20B9
:102A0000888918161CF461E00E94FA208F85181638
:102A10001CF461E00E94FA20888918166CF460E0CA
:102A20000E9439216AE070E080E090E00E94E41F9B
:102A3000888961E00E943921EC852E2F332727FDFC
:102A40003095F901E655FA4FE491F0E0EE0FFF1FE3
:102A5000EA56FA4F859194919C8B8B8B22543A4F76
:102A6000F90184918A8FED852E2F332727FD30952C
:102A7000F901E655FA4FE491F0E0EE0FFF1FEA5638
:102A8000FA4F859194919A8B898B22543A4FF90190
:102A90008491898FEF852E2F332727FD3095F901FB
:102AA000E655FA4FE491F0E0EE0FFF1FEA56FA4FB9
:102AB000859194919E8B8D8B22543A4FF90184918C
:102AC0008B8FEE852E2F332727FD3095F901E655A4
:102AD000FA4FE491F0E0EE0FFF1FEA56FA4F8591AE
:102AE0009491988F8F8B22543A4FF90184918C8F57
:102AF000CE0161E20E945914CE0164E10E94591492
:102B00008B8587FF02C08FE78B876B856068CE015E
:102B10000E945914CE0160E20E945914CE016CE06B
:102B20000E945914CE010E947914DF91CF910F9128
:102B3000EF900895CF93DF93DC01E0E8FFE6859105
:102B40009491ED01C553DF4FAD014F515F4F81505F
:102B5000904C09F04EC0E6E9FFE6E491E883E7E92E
:102B6000FFE6E4911496EC931497E8E9FFE6E4910C
:102B70001596EC931597E9E9FFE6859194911796E0
:102B80009C938E931697EBE9FFE6859194911996A5
:102B90009C938E931897EDE9FFE6E491D796EC931A
:102BA000D797EEE9FFE6E491D696EC93D697EFE956
:102BB000FFE6E491EA01E883E0EAFFE6859194917B
:102BC0005D969C938E935C97E2EAFFE685919491E3
:102BD0005F969C938E935E97E4EAFFE685919491CD
:102BE00091969C938E939097E6EAFFE68591949157
:102BF00032C08CE3888314961C9214972FEF15969D
:102C00002C93159780E293E017969C938E931697DA
:102C100084ED93E019969C938E93189781E0D79654
:102C20008C93D797D6968C93D697FA0120838CEA0B
:102C30009DE05D969C938E935C978EED9DE05F96F4
:102C40009C938E935E9784E79EE091969C938E93DF
:102C500090978CE39FE093969C938E939297DF914D
:102C6000CF910895EF92FF920F931F93CF93DF932D
:102C70007C018C0100541F4FC8010E94B914C80187
:102C800067E274E00E941922C8010E94791483E06F
:102C90000E94BC0E80E091E0EEEFFFE3099586EC28
:102CA00090E0E80EF91EF7011082C80162E074E0BE
:102CB0000E946422C8010E947914E701CC5BD040D5
:102CC000CE010E94BF0FCE0164E00E94AB0F8823AB
:102CD00039F462E370E080E090E00E94E41FF0CFFE
:102CE000DF91CF911F910F91FF90EF9008950F9377
:102CF0001F93CF93DF93EC018C0100541F4FC80149
:102D000061E040E00E94EB0FFE01E753FF4FCC5320
:102D1000DF4F85E59881891B808326961882CA5CDF
:102D2000D040698D613081F1613028F0888D653047
:102D300008F043C03DC0CE0185960E94FD1ACE0129
:102D400060E00E94E80EC8010E94B914C853DF4F2A
:102D500081E08883C8016FE474E00E941922C801F1
:102D60000E94791483B7817F846083BF83B78160B9
:102D700083BF83B7816083BF889583B78E7F83BF0E
:102D800083B78E7F83BF1FC0CE51DF4F888199816B
:102D9000AA81BB818F709070A070B0700897A10558
:102DA000B10518F4C80167E00CC0C80168E709C0A4
:102DB000882349F06B5FC80104C0882321F0C80153
:102DC0006FE20E943C22DF91CF911F910F910895F5
:102DD000AF92BF92CF92DF92EF92FF920F931F9329
:102DE000CF93DF93EC01C950DF4F8881C75FD0409C
:102DF000882309F44AC08C3010F010E002C01CE0B7
:102E0000181BC853DF4F81E08883C85CD04060EC5A
:102E1000C62ED12CCC0EDD1EC60160E00E94E70F4D
:102E200055ECA52EB12CAC0EBD1EF50100814DE276
:102E3000F42E4F2D401B410F0D5FC60160E024E5CD
:102E400033E0E32E0E949B12C60161E00E94E70F6F
:102E5000F5010081F01AF10E0D5FC60160E04F2D03
:102E600024E50E943D12C753DF4F84E08993F501AA
:102E70008081181B115D1883AB9669917991C60109
:102E80000E941922888181508883DF91CF911F9100
:102E90000F91FF90EF90DF90CF90BF90AF9008958B
:102EA0008F929F92AF92BF92CF92DF92EF92FF925A
:102EB0000F931F934C01FC01A28CB38CCC24DD2416
:102EC0000E94BE1F7B018C01F401818092800E94D0
:102ED000BE1F860E971EE094F09400951095C801D1
:102EE000B701A60195010E942624860E971EC401F3
:102EF0000E9401231F910F91FF90EF90DF90CF90E0
:102F0000BF90AF909F908F900895AF92BF92CF9255
:102F1000DF92EF92FF920F931F93CF93DF93EC0119
:102F2000E1EFAE2EB12CA80EB91EF501E080F180C4
:102F3000028113810E94B01FE61AF70A080B190BD1
:102F400070EFC72ED12CCC0EDD1EF601808190E0F3
:102F5000A0E0B0E08E159F05A007B10708F081C082
:102F60008E0104511F4FF80180819181A281B381AC
:102F70000097A105B10509F474C00E94B01FF601C5
:102F80002081620F711D811D911DF5016083718388
:102F900082839383FE01EE51FF4F80819181A28154
:102FA000B3810196A11DB11D80839183A283B38358
:102FB000F80110821182128213820E94BE1FC85132
:102FC000DF4F688379838A839B83C85ED040CE01BC
:102FD0000E94ED0ECE010A960E94BF0FCE014896C8
:102FE0000E945F0F81E032C08E010B5D1F4FC80150
:102FF0000E94801BC8010E94641CC8010E94E01D41
:10300000CE010E94E816CE010E9477168E01005470
:103010001F4FC8010E947914CA53DF4F8881C65CD4
:10302000D040882319F4C8010E94B9140E94BE1F21
:10303000C451DF4F688379838A839B8324972881D7
:103040003981621B730B7A936A9380E0DF91CF9191
:103050001F910F91FF90EF90DF90CF90BF90AF90B6
:103060000895C451DF4F88819981AA81BB81CC5ECC
:10307000D0400097A105B10541F7B6CF2F923F92FE
:103080004F925F926F927F928F929F92AF92BF9278
:10309000CF92DF92EF92FF920F931F93DF93CF9324
:1030A000CDB7DEB72B970FB6F894DEBF0FBECDBFFE
:1030B0009B878A877A8369835C834B838C010F515A
:1030C0001F4FF8018081882309F422C18A859B85DE
:1030D00088539F4F9B878A8781E0EA85FB858083A1
:1030E00012921292E65CF040FB87EA87108E90EC19
:1030F000E92EF12CEE0EFF1EC70161E00E94E70FE2
:103100008AE0282E312C8A859B85280E391EB5E24F
:103110006B2E712C680E791EE981FA81F491FD8382
:10312000A9EC8A2E912C880E991EFAECCF2ED12C68
:10313000C80ED91EE4EC4E2E512C480E591E8B534E
:103140009F4F9F838E8372EEA72EB12C8A859B851D
:10315000A80EB91E198708878A859B850E94851746
:103160008823D1F39D81992311F410E003C0EE81EF
:10317000FF811081C70160E040E02BE934E00E944C
:10318000D6128B819C81892B41F0145FC70160E0CE
:10319000412F2B813C810E94D612F40110828CE0D9
:1031A000F6018083C70169817A810E941922F201A8
:1031B000208130E0C901880F991F820F931F9095DD
:1031C00081959F4F8D5AF4018083EE81FF8120818C
:1031D00030E0C901880F991F820F931F9095819548
:1031E0009F4F835DF6018083F501808184FF04C0D9
:1031F000C7016BE175E003C0C70167E175E00E949C
:103200006422F201208130E0C901880F991F820FEA
:10321000931F909581959F4F8D5AF4018083F601FD
:1032200080818F5F8083EA85FB8586A9882321F0D2
:10323000C70163E175E003C0C7016FE075E00E945C
:103240006422F201808190E09C01220F331F280F3D
:10325000391F309521953F4F2D5AF4012083F601F7
:1032600080818F5F8083C7016BE075E00E946422DC
:10327000C10165E00E94AB0F882351F0EA85FB8510
:1032800066A96F5FC3010E94F51EC3010E94EF1E75
:10329000C10164E00E94AB0F882399F4E885F985A9
:1032A0006081262F30E040E050E0F501808191817F
:1032B000A281B38182179307A407B50708F16F3F76
:1032C000F9F08A859B858F519F4F9B878A878FEF67
:1032D000EA85FB858083E15EF040FB87EA87C301D6
:1032E00060E00E94ED1AC3010E94E91E81E0EA85B8
:1032F000FB85808F0DC08A859B850E9432162CCF5E
:10330000C10166E00E94AB0F882309F425CFF3CFFB
:103310002B960FB6F894DEBF0FBECDBFCF91DF91D5
:103320001F910F91FF90EF90DF90CF90BF90AF90E3
:103330009F908F907F906F905F904F903F902F90D5
:103340000895AF92BF92CF92DF92EF920F93CF93F7
:10335000DF936C0180EF90E0C80ED91E82E3F60186
:10336000808381E090E0A0E0B0E0B293A2939293DA
:1033700082936F0185EF9FEFC80ED91E8FEFF60184
:1033800080838FE19FEFC80ED91EC6010E949A1557
:10339000C6010E94E40EC6016FEF0E94E80E4AE0EB
:1033A000A42EB12CAC0CBD1CC5010E949B0FC50105
:1033B0000E94BF0FC60148960E94550FC601805457
:1033C0009F4F6DE04BE020E10FE03EE0E32E0E94D6
:1033D000CE14E601A596CE010E94021FC50165E04C
:1033E0000E94AB0F882329F0CE0160E00E94F51EF9
:1033F00018C0CE0161E275E040E00E94121BCE01D0
:1034000061E275E041E00E94121BCE0161E275E0CD
:1034100042E00E94121BCE0161E275E043E00E948F
:10342000121BDF91CF910F91EF90DF90CF90BF9063
:10343000AF9008950F93CF93DF93DC01043008F031
:103440005AC0623009F443C0633030F4662359F047
:10345000613009F050C00DC0633009F43EC06430E3
:1034600009F049C040C0A00FB11DA15BBF4F4C93F4
:1034700042C0602F70E0EB01CC0FDD1FC80FD91FD9
:10348000842F90E0880F991F2BA93CA9280F391F82
:10349000F90185919491CD58DF4F99838883FC0180
:1034A00045915491042FFD01E60FF71FE558FF4F9A
:1034B0004083252F3327842F90E02817390708F4FD
:1034C000052FA60FB71FA158BF4F0C9314C0FC01C6
:1034D000E00FF11DE55AFF4F0BC0FC01E00FF11D9D
:1034E000ED59FF4F05C0FC01E00FF11DE559FF4FFD
:1034F000408334962083DF91CF910F910895CF932D
:10350000DF93EC012430F0F4A22FB0E0FC01EA0FCD
:10351000FB1FE95BFF4F608334964083E05CFF4F05
:103520001082CD01880F991FC80FD91FCD57DF4FCB
:1035300019821882F89781E08083A554B94F8C9343
:1035400034961082DF91CF910895CF93DF93EC01F1
:10355000643008F03FC0A62FB0E0FC01EA0FFB1F6B
:10356000ED5AFF4F108238971082CD01880F991FB6
:10357000C80FD91FCD57DF4F198218823C96108291
:10358000FD01E953F94F1082FD01ED53F94F10820F
:10359000A554B94F1C928091BB06882311F490E08A
:1035A00002C09091C7068091BC06882319F08091D3
:1035B000C806980F8091BD06882319F08091C9062E
:1035C000980F8091BE06882319F08091CA06980F43
:1035D0009093B400DF91CF9108951F93CF93DF9321
:1035E000EC01162F643028F40E94A51AC10FD11DDA
:1035F0001C82DF91CF911F9108950F931F938C012F
:1036000060E00E94ED1AC80161E00E94ED1AC80155
:1036100062E00E94ED1AC80163E00E94ED1A1F915A
:103620000F910895EF92FF921F93CF93DF93EC01D8
:103630007B01142F4430F0F4642F0E94ED1A812F87
:1036400090E0FC01EE0FFF1FEC0FFD1FF4A6E3A6B8
:10365000FF9611821082FE01E80FF91F81E084833A
:10366000E15BFF4F89E080833C96108238961082A0
:1036700038961082DF91CF911F91FF90EF900895BF
:103680001F93CF93DF93AC01162F6430A8F5262F3C
:1036900030E0EC01C20FD31F8881882369F18C814F
:1036A000882351F5D901AA0FBB1FA40FB51F8B8D1D
:1036B00090E0880F991F5396ED91FC915497E80F75
:1036C000F91F859194912FEF8F3F920711F4188283
:1036D00013C09FA390E0880F991F5F96ED91FC9116
:1036E0009097E80FF91F65917491CA01412F0E94CC
:1036F000121B8B8D8F5F8B8FDF91CF911F91089560
:103700000F931F938C0160E00E94401BC80161E091
:103710000E94401BC80162E00E94401BC80163E098
:103720000E94401B1F910F9108956F927F929F926C
:10373000AF92BF92CF92DF92EF92FF920F931F93BF
:10374000CF93DF937C01962E23E0261708F4AEC0BA
:10375000C62EDD24DC01AC0DBD1D14968C91149792
:10376000882309F4A3C0A55BBF4F8C91AB54B04034
:10377000882309F09BC05601AA0CBB1CAE0CBF1CD1
:103780008501015C1F4FE801E881F981EE0FFF1F01
:10379000E5014BA55CA5E40FF51F2591349121159A
:1037A000310509F047C0DB968C91DB97813039F405
:1037B000F80111821082FA01259134913BC01496D0
:1037C0001C9214978C91882381F0C7010E94401BA2
:1037D000D8018D919C91880F991FE501EBA5FCA55F
:1037E000E80FF91F2591349125C0C7010E94A51A41
:1037F0005DC0E6E036952795EA95E1F76F70422FB8
:103800004F7175E0369527957A95E1F72051C701FC
:10381000092D0E941A1A88819981019699838883BB
:10382000880F991FD501ED91FC91E80FF91F2591A3
:1038300034910DC03601660C771CC701860D971DAB
:10384000EC01EF964BE2A42EB12CA80EB91EB901E3
:10385000769567957695679520FDCBCFF701EC0DB2
:10386000FD1DE95BFF4F862F8F7380833496308375
:10387000E05CFF4F1082D701A60DB71DAD57BF4FBB
:1038800011961C921E92F89781E08083CBEBD6E0D4
:10389000CC0EDD1EE601888334961082A454B0401D
:1038A0008D919C91119701968D939C93DF91CF916F
:1038B0001F910F91FF90EF90DF90CF90BF90AF904E
:1038C0009F907F906F9008950F931F938C0160E0FD
:1038D0000E94951BC80161E00E94951BC80162E02F
:1038E0000E94951BC80163E00E94951B1F910F91D8
:1038F0000895DF92EF92FF920F931F93CF93DF9380
:103900007C01D62E43E0461708F452C1062F10E082
:10391000DC01A00FB11FAD5ABF4F8C91A355B04031
:10392000882309F445C1FD01E55BFF4F80818823B1
:1039300021F4C7010E94A51A3BC181508083BD01BB
:1039400065577F4FFB018081882309F052C0F80141
:10395000EE0FFF1FEE0DFF1DEF01CD57DF4F8881EA
:1039600099810196880F991FED58FF4F0190F081C2
:10397000E02DE80FF91F25913491A157BF4F822FF9
:1039800087708C93A901F3E056954795FA95E1F776
:10399000CA01969587951496232F33272695269549
:1039A0002C938F73F7012089829F802D1124FB01B6
:1039B0008083F801E553F94F4170408388819981F4
:1039C00001969983888358972C91AB57B04030E08B
:1039D0008217930770F0A158BF4F8C91882329F06C
:1039E000281B31093983288304C0C7016D2D0E942B
:1039F000A51AE701C00FD11FFE01E557FF4F8081D7
:103A000081508083FE01E95AFF4F90819F5F908330
:103A1000FE01ED56FF4FC95BDF4FE0818881C7543F
:103A2000D040E80F8FA1E80FE887CD59DF4F6881BC
:103A3000C356D040662389F0892F992787FD90953A
:103A400070E00E945924C959DF4F8881C756D04081
:103A5000869F802D11248E0F8887F701E00FF11FBC
:103A6000808590E0CB966BE370E00E9459248087BC
:103A7000E15BFF4F2081EF54F0402487E55AFF4F70
:103A80006081EB55F0406623A1F0E95AFF4F808139
:103A9000772767FD7095992787FD90950E94592497
:103AA00038968081EF55F040869F802D1124820F3B
:103AB0008487F701E00FF11FE559FF4F6081EB5656
:103AC000F0406623C1F0E95AFF4F8081992787FDB6
:103AD000909570E00E945924CB0162E070E00E9452
:103AE000592478969081EF56F040899F802D1124BB
:103AF0009485890F8487F701E00FF11F84858A3050
:103B00000CF089E0F701E00FF11F87FD80E084876A
:103B1000F701E00FF11FE95BFF4F8081E754F040B0
:103B20008F3309F41486F894A701400F511FDA016E
:103B30001896EC91F0E0EB5BFA4FE491D801A154B8
:103B4000B94FEC93FA012485332727FD3095495668
:103B50005F4FDA018C9190E0F901E89F9001E99FB5
:103B6000300DF89F300D1124D70151968C9190E0C3
:103B7000F901E89F9001E99F300DF89F300D112465
:103B800048505040DA018C91992787FD9095FC01AF
:103B90002E9FC0012F9F900D3E9F900D1124F80184
:103BA000ED53F94F80830953194FD8018C937894C2
:103BB000DF91CF911F910F91FF90EF90DF900895CB
:103BC0000F931F938C0160E00E94791CC80161E093
:103BD0000E94791CC80162E00E94791CC80163E060
:103BE0000E94791C1F910F9108956091C30666236E
:103BF00041F18091B7068F5F8093B7069091BF0621
:103C00008917F8F090E08091BB06882309F491E0D1
:103C10009093BB061092B7068091CB06882379F06B
:103C200080911F0123E4829FC0011124895B80934E
:103C30001F0190E070E00E9445248093C70621E0B8
:103C400001C020E06091C406662339F18091B80676
:103C50008F5F8093B8069091C0068917F0F090E0CE
:103C60008091BC06882309F491E09093BC061092E1
:103C7000B8068091CC06882379F080911F0123E457
:103C8000829FC0011124895B80931F0190E070E046
:103C90000E9445248093C80621E06091C5066623F2
:103CA00039F18091B9068F5F8093B9069091C10672
:103CB0008917F0F090E08091BD06882309F491E027
:103CC0009093BD061092B9068091CD06882379F0B5
:103CD00080911F0123E4829FC0011124895B80939E
:103CE0001F0190E070E00E9445248093C90621E006
:103CF0006091C606662339F18091BA068F5F809382
:103D0000BA069091C2068917F0F090E08091BE0645
:103D1000882309F491E09093BE061092BA06809130
:103D2000CE06882391F080911F0123E4829FC00179
:103D30001124895B80931F0190E070E00E9445246C
:103D40008093CA0602C02223F9F08091BB06882323
:103D500011F490E002C09091C7068091BC068823C0
:103D600019F08091C806980F8091BD06882319F03C
:103D70008091C906980F8091BE06882319F0809122
:103D8000CA06980F9093B40008951F920F920FB631
:103D90000F9211242F933F934F935F936F937F93D1
:103DA0008F939F93AF93BF93EF93FF930E94F51D63
:103DB000FF91EF91BF91AF919F918F917F916F9103
:103DC0005F914F913F912F910F900FBE0F901F90D9
:103DD00018956DE375E040E00E94121B08956FE2B4
:103DE00075E040E00E94121B0895FC01862F628955
:103DF00070E06F5F7F4F992787FD90950E9459244F
:103E0000818B08959F92AF92BF92CF92DF92EF92F3
:103E1000FF920F931F93CF93DF93EC0181E0888B88
:103E200067E9C62ED12CCC0EDD1E53E3E52EF12C16
:103E3000EC0EFD1E10E09924939440E8A42E45E07A
:103E4000B42EF60191926F01F701A192B1927F0118
:103E5000CE0161E040E020E0012F0E941A1A1F5FAE
:103E6000143079F783E061E070E00E949A2080913D
:103E7000B100887F81608093B100F8941092800037
:103E800010928100109285001092840088E191E0E8
:103E9000909389008093880080918100886080934E
:103EA00081008091810081608093810080916F000A
:103EB000826080936F007894DF91CF911F910F9172
:103EC000FF90EF90DF90CF90BF90AF909F900895BC
:103ED0001F920F920FB60F9211242F933F938F933F
:103EE0009F93AF93BF938091D3069091D406A091F6
:103EF000D506B091D6063091D7060196A11DB11D09
:103F0000232F2D5F2D3720F02D570196A11DB11DB8
:103F10002093D7068093D3069093D406A093D5061A
:103F2000B093D6068091CF069091D006A091D1068D
:103F3000B091D2060196A11DB11D8093CF0690933A
:103F4000D006A093D106B093D206BF91AF919F91B6
:103F50008F913F912F910F900FBE0F901F9018954A
:103F60008FB7F8942091D3063091D4064091D506AE
:103F70005091D6068FBFB901CA0108959FB7F89432
:103F80002091CF063091D0064091D1065091D206B3
:103F900086B5A89B06C08F3F21F02F5F3F4F4F4F44
:103FA0005F4F9FBF542F432F322F2227280F311DE1
:103FB000411D511D82E0220F331F441F551F8A955A
:103FC000D1F7B901CA0108959B01AC017FB7F894FC
:103FD0008091CF069091D006A091D106B091D206E3
:103FE00066B5A89B05C06F3F19F00196A11DB11DD4
:103FF0007FBFBA2FA92F982F8827860F911DA11D4B
:10400000B11D62E0880F991FAA1FBB1F6A95D1F7E7
:10401000BC012DC0FFB7F8948091CF069091D006D7
:10402000A091D106B091D206E6B5A89B05C0EF3F9E
:1040300019F00196A11DB11DFFBFBA2FA92F982F0E
:1040400088278E0F911DA11DB11DE2E0880F991FD9
:10405000AA1FBB1FEA95D1F7861B970B885E93407A
:10406000C8F2215030404040504068517C4F2115EB
:1040700031054105510571F60895789484B5826043
:1040800084BD84B5816084BD85B5826085BD85B5FC
:10409000816085BDEEE6F0E0808181608083E1E8AB
:1040A000F0E01082808182608083808181608083E3
:1040B000E0E8F0E0808181608083E1EBF0E08081E6
:1040C00084608083E0EBF0E0808181608083EAE7B8
:1040D000F0E0808184608083808182608083808141
:1040E000816080838081806880831092C100089500
:1040F000982F8E3008F09E50977080912001829505
:10410000880F880F807C892B80937C0080917A00B7
:10411000806480937A0080917A0086FDFCCF2091A4
:10412000780040917900942F80E030E0282B392BE3
:10413000C90108951F93CF93DF93182FEB0161E01E
:104140000E94FA20209709F44AC0CF3FD10509F414
:1041500049C0E12FF0E0EE52FA4F84918330C1F074
:10416000843028F4813051F08230B1F50CC08630B3
:1041700019F1873049F1843079F514C084B580682D
:1041800084BDC7BD33C084B5806284BDC8BD2EC0A8
:1041900080918000806880938000D0938900C093D4
:1041A000880024C080918000806280938000D0933A
:1041B0008B00C0938A001AC08091B0008068809301
:1041C000B000C093B30012C08091B00080628093B1
:1041D000B000C093B4000AC0C038D1051CF4812FD0
:1041E00060E002C0812F61E00E943921DF91CF9110
:1041F0001F910895CF93DF93482F50E0CA01825456
:104200009A4FFC01349146555A4FFA018491882304
:1042100069F190E0880F991FFC01E457FA4FA591CE
:10422000B491FC01EA56FA4FC591D491662351F43A
:104230002FB7F8948C91932F909589238C93888134
:1042400089230BC0623061F42FB7F8948C91932FBF
:10425000909589238C938881832B88832FBF06C0F8
:104260009FB7F8948C91832B8C939FBFDF91CF9154
:104270000895482F50E0CA018E529A4FFC012491B4
:10428000CA0182549A4FFC01949146555A4FFA0143
:104290003491332309F440C0222351F1233071F0CB
:1042A000243028F42130A1F0223011F514C026303A
:1042B000B1F02730C1F02430D9F404C080918000DF
:1042C0008F7703C0809180008F7D8093800010C025
:1042D00084B58F7702C084B58F7D84BD09C080917D
:1042E000B0008F7703C08091B0008F7D8093B000C5
:1042F000E32FF0E0EE0FFF1FEA56FA4FA591B491BD
:104300002FB7F894662321F48C919095892302C0ED
:104310008C91892B8C932FBF0895682F70E0CB016F
:104320008E529A4FFC012491CB0182549A4FFC018A
:10433000449166557A4FFB019491992319F420E03A
:1043400030E03CC0222351F1233071F0243028F4B6
:104350002130A1F0223011F514C02630B1F0273001
:10436000C1F02430D9F404C0809180008F7703C05D
:10437000809180008F7D8093800010C084B58F77FE
:1043800002C084B58F7D84BD09C08091B0008F7755
:1043900003C08091B0008F7D8093B000892F90E0A2
:1043A000880F991F80569A4FFC01A591B4918C916A
:1043B00020E030E0842311F021E030E0C9010895CD
:1043C000CF93DF930E943D200E94930EC0E0D0E087
:1043D0000E94600E2097E1F30E940000F9CFCF9277
:1043E000DF92EF92FF920F931F93CF93DF937C01A5
:1043F0006B018A01C0E0D0E00FC0D6016D916D0164
:10440000D701ED91FC910190F081E02DC701099554
:10441000C80FD91F015010400115110571F7CE01C9
:10442000DF91CF911F910F91FF90EF90DF90CF9090
:104430000895EF92FF920F931F93CF93DF937C0128
:104440008B01C0E0D0E0F8010F5F1F4F649166233D
:1044500059F0D701ED91FC910190F081E02DC70159
:104460000995C80FD91FEFCFCE01DF91CF911F91D2
:104470000F91FF90EF900895DC01ED91FC91019078
:10448000F081E02D09950895EF92FF920F931F930D
:104490008C01DC01ED91FC910190F081E02D6DE04B
:1044A00009957C01D801ED91FC910190F081E02DFE
:1044B000C8016AE009959C012E0D3F1DC9011F919D
:1044C0000F91FF90EF900895EF92FF920F931F933B
:1044D0007C010E9419228C01C7010E9444229C0188
:1044E000200F311FC9011F910F91FF90EF90089588
:1044F0002F923F924F925F926F927F928F929F92F4
:10450000AF92BF92CF92DF92EF92FF920F931F93E1
:10451000DF93CF93CDB7DEB73B014C0119012A01E0
:104520006D897E898F89988D6A197B098C099D090F
:10453000621A730A840A950AA40193010E94262430
:10454000E218F30804091509A80197010E948E24B6
:104550002A0D3B1D4C1D5D1DB901CA01CF91DF9194
:104560001F910F91FF90EF90DF90CF90BF90AF9091
:104570009F908F907F906F905F904F903F902F9083
:104580000895EF92FF920F931F937B018C016115A9
:1045900071058105910529F420E030E040E050E00C
:1045A0000BC00E947103A80197010E948E24AC01E8
:1045B000CB01DA019C01AD01B901CA011F910F9134
:1045C000FF90EF900895EF92FF920F931F937B015E
:1045D0008C01621773078407950764F4261B370B59
:1045E000480B590BCA01B9010E94C122E60EF71E01
:1045F000081F191FB701C8011F910F91FF90EF907D
:104600000895009729F0BC0180E090E00E947603B5
:10461000089598D088F09F5790F0B92F9927B751F7
:10462000A0F0D1F0660F771F881F991F1AF0BA9576
:10463000C9F712C0B13081F09FD0B1E008959CC09D
:10464000672F782F8827B85F39F0B93FCCF386956C
:1046500077956795B395D9F73EF4909580957095C9
:1046600061957F4F8F4F9F4F0895E89409C097FB46
:104670003EF490958095709561957F4F8F4F9F4F39
:104680009923A9F0F92F96E9BB279395F69587957D
:1046900077956795B795F111F8CFFAF4BB0F11F440
:1046A00060FF1BC06F5F7F4F8F4F9F4F16C08823E7
:1046B00011F096E911C0772321F09EE8872F762F1D
:1046C00005C0662371F096E8862F70E060E02AF05E
:1046D0009A95660F771F881FDAF7880F969587954A
:1046E00097F9089597F99F6780E870E060E0089572
:1046F0009FEF80EC089500240A94161617061806FA
:104700000906089500240A941216130614060506D5
:104710000895092E0394000C11F4882352F0BB0F66
:1047200040F4BF2B11F460FF04C06F5F7F4F8F4FC9
:104730009F4F089557FD9058440F551F59F05F3F04
:1047400071F04795880F97FB991F61F09F3F79F0B3
:1047500087950895121613061406551FF2CF469535
:10476000F1DF08C0161617061806991FF1CF8695B7
:104770007105610508940895E894BB27662777279B
:10478000CB0197F908950BD0C4CFB5DF28F0BADF7D
:1047900018F0952309F0A6CFABCF1124EECFCADFD6
:1047A000A0F3959FD1F3950F50E0551F629FF00144
:1047B000729FBB27F00DB11D639FAA27F00DB11D9D
:1047C000AA1F649F6627B00DA11D661F829F222726
:1047D000B00DA11D621F739FB00DA11D621F839FAD
:1047E000A00D611D221F749F3327A00D611D231F83
:1047F000849F600D211D822F762F6A2F11249F57D1
:1048000050408AF0E1F088234AF0EE0FFF1FBB1FF3
:10481000661F771F881F91505040A9F79E3F510592
:1048200070F060CFAACF5F3FECF3983EDCF3869543
:1048300077956795B795F795E7959F5FC1F7FE2B3D
:10484000880F911D9695879597F90895629FD001DD
:10485000739FF001829FE00DF11D649FE00DF11D3B
:10486000929FF00D839FF00D749FF00D659FF00DEA
:104870009927729FB00DE11DF91F639FB00DE11DD7
:10488000F91FBD01CF0111240895AA1BBB1B51E1E3
:1048900007C0AA1FBB1FA617B70710F0A61BB70BB0
:1048A000881F991F5A95A9F780959095BC01CD0155
:1048B000089597FB092E07260AD077FD04D0E5DF7F
:1048C00006D000201AF4709561957F4F0895F6F791
:1048D000909581959F4F0895A1E21A2EAA1BBB1BAC
:1048E000FD010DC0AA1FBB1FEE1FFF1FA217B307BC
:1048F000E407F50720F0A21BB30BE40BF50B661FD2
:10490000771F881F991F1A9469F760957095809595
:1049100090959B01AC01BD01CF01089597FB092E35
:1049200005260ED057FD04D0D7DF0AD0001C38F47E
:1049300050954095309521953F4F4F4F5F4F0895CB
:10494000F6F790958095709561957F4F8F4F9F4FAB
:104950000895EE0FFF1F0590F491E02D09942F921A
:104960003F924F925F926F927F928F929F92AF92FF
:10497000BF92CF92DF92EF92FF920F931F93CF934C
:10498000DF93CDB7DEB7CA1BDB0B0FB6F894DEBFE3
:104990000FBECDBF09942A88398848885F846E8409
:1049A0007D848C849B84AA84B984C884DF80EE8053
:1049B000FD800C811B81AA81B981CE0FD11D0FB65C
:1049C000F894DEBF0FBECDBFED010895F894FFCF80
:1049D0004C4F414445520001000000FC0004010C12
:1049E0000114011C0124012C0134013C014401018A
:1049F00001000000002F0EC10A8D0DAA0B2C0EC95C
:104A00000AA30B9C0B00002D001A000100000001FE
:104A10000007000A00000021003500010000000529
:104A2000000700030000000E002E0006000000003A
:104A30000007000B00010001000000000000000062
:0E4A40000007000200000000001C14EF21001F
:00000001FF
